{"abi":[{"type":"constructor","inputs":[{"name":"name_","type":"string","internalType":"string"},{"name":"symbol_","type":"string","internalType":"string"}],"stateMutability":"nonpayable"},{"type":"function","name":"approve","inputs":[{"name":"to","type":"address","internalType":"address"},{"name":"tokenId","type":"uint256","internalType":"uint256"}],"outputs":[],"stateMutability":"nonpayable"},{"type":"function","name":"balanceOf","inputs":[{"name":"owner","type":"address","internalType":"address"}],"outputs":[{"name":"","type":"uint256","internalType":"uint256"}],"stateMutability":"view"},{"type":"function","name":"getApproved","inputs":[{"name":"tokenId","type":"uint256","internalType":"uint256"}],"outputs":[{"name":"","type":"address","internalType":"address"}],"stateMutability":"view"},{"type":"function","name":"isApprovedForAll","inputs":[{"name":"owner","type":"address","internalType":"address"},{"name":"operator","type":"address","internalType":"address"}],"outputs":[{"name":"","type":"bool","internalType":"bool"}],"stateMutability":"view"},{"type":"function","name":"name","inputs":[],"outputs":[{"name":"","type":"string","internalType":"string"}],"stateMutability":"view"},{"type":"function","name":"ownerOf","inputs":[{"name":"tokenId","type":"uint256","internalType":"uint256"}],"outputs":[{"name":"","type":"address","internalType":"address"}],"stateMutability":"view"},{"type":"function","name":"safeTransferFrom","inputs":[{"name":"from","type":"address","internalType":"address"},{"name":"to","type":"address","internalType":"address"},{"name":"tokenId","type":"uint256","internalType":"uint256"}],"outputs":[],"stateMutability":"nonpayable"},{"type":"function","name":"safeTransferFrom","inputs":[{"name":"from","type":"address","internalType":"address"},{"name":"to","type":"address","internalType":"address"},{"name":"tokenId","type":"uint256","internalType":"uint256"},{"name":"_data","type":"bytes","internalType":"bytes"}],"outputs":[],"stateMutability":"nonpayable"},{"type":"function","name":"setApprovalForAll","inputs":[{"name":"operator","type":"address","internalType":"address"},{"name":"approved","type":"bool","internalType":"bool"}],"outputs":[],"stateMutability":"nonpayable"},{"type":"function","name":"supportsInterface","inputs":[{"name":"interfaceId","type":"bytes4","internalType":"bytes4"}],"outputs":[{"name":"","type":"bool","internalType":"bool"}],"stateMutability":"view"},{"type":"function","name":"symbol","inputs":[],"outputs":[{"name":"","type":"string","internalType":"string"}],"stateMutability":"view"},{"type":"function","name":"tokenURI","inputs":[{"name":"tokenId","type":"uint256","internalType":"uint256"}],"outputs":[{"name":"","type":"string","internalType":"string"}],"stateMutability":"view"},{"type":"function","name":"totalSupply","inputs":[],"outputs":[{"name":"","type":"uint256","internalType":"uint256"}],"stateMutability":"view"},{"type":"function","name":"transferFrom","inputs":[{"name":"from","type":"address","internalType":"address"},{"name":"to","type":"address","internalType":"address"},{"name":"tokenId","type":"uint256","internalType":"uint256"}],"outputs":[],"stateMutability":"nonpayable"},{"type":"event","name":"Approval","inputs":[{"name":"owner","type":"address","indexed":true,"internalType":"address"},{"name":"approved","type":"address","indexed":true,"internalType":"address"},{"name":"tokenId","type":"uint256","indexed":true,"internalType":"uint256"}],"anonymous":false},{"type":"event","name":"ApprovalForAll","inputs":[{"name":"owner","type":"address","indexed":true,"internalType":"address"},{"name":"operator","type":"address","indexed":true,"internalType":"address"},{"name":"approved","type":"bool","indexed":false,"internalType":"bool"}],"anonymous":false},{"type":"event","name":"Transfer","inputs":[{"name":"from","type":"address","indexed":true,"internalType":"address"},{"name":"to","type":"address","indexed":true,"internalType":"address"},{"name":"tokenId","type":"uint256","indexed":true,"internalType":"uint256"}],"anonymous":false},{"type":"error","name":"ApprovalCallerNotOwnerNorApproved","inputs":[]},{"type":"error","name":"ApprovalQueryForNonexistentToken","inputs":[]},{"type":"error","name":"ApprovalToCurrentOwner","inputs":[]},{"type":"error","name":"ApproveToCaller","inputs":[]},{"type":"error","name":"BalanceQueryForZeroAddress","inputs":[]},{"type":"error","name":"MintToZeroAddress","inputs":[]},{"type":"error","name":"MintZeroQuantity","inputs":[]},{"type":"error","name":"OwnerQueryForNonexistentToken","inputs":[]},{"type":"error","name":"TransferCallerNotOwnerNorApproved","inputs":[]},{"type":"error","name":"TransferFromIncorrectOwner","inputs":[]},{"type":"error","name":"TransferToNonERC721ReceiverImplementer","inputs":[]},{"type":"error","name":"TransferToZeroAddress","inputs":[]},{"type":"error","name":"URIQueryForNonexistentToken","inputs":[]}],"bytecode":{"object":"0x608060405234801561001057600080fd5b506040516112a33803806112a383398101604081905261002f91610112565b600261003b8382610200565b5060036100488282610200565b505060008055506102bf565b634e487b7160e01b600052604160045260246000fd5b600082601f83011261007b57600080fd5b81516001600160401b038082111561009557610095610054565b604051601f8301601f19908116603f011681019082821181831017156100bd576100bd610054565b81604052838152602092508660208588010111156100da57600080fd5b600091505b838210156100fc57858201830151818301840152908201906100df565b6000602085830101528094505050505092915050565b6000806040838503121561012557600080fd5b82516001600160401b038082111561013c57600080fd5b6101488683870161006a565b9350602085015191508082111561015e57600080fd5b5061016b8582860161006a565b9150509250929050565b600181811c9082168061018957607f821691505b6020821081036101a957634e487b7160e01b600052602260045260246000fd5b50919050565b601f8211156101fb576000816000526020600020601f850160051c810160208610156101d85750805b601f850160051c820191505b818110156101f7578281556001016101e4565b5050505b505050565b81516001600160401b0381111561021957610219610054565b61022d816102278454610175565b846101af565b602080601f831160018114610262576000841561024a5750858301515b600019600386901b1c1916600185901b1785556101f7565b600085815260208120601f198616915b8281101561029157888601518255948401946001909101908401610272565b50858210156102af5787850151600019600388901b60f8161c191681555b5050505050600190811b01905550565b610fd5806102ce6000396000f3fe608060405234801561001057600080fd5b50600436106100ea5760003560e01c80636352211e1161008c578063a22cb46511610066578063a22cb465146101d6578063b88d4fde146101e9578063c87b56dd146101fc578063e985e9c51461020f57600080fd5b80636352211e146101a857806370a08231146101bb57806395d89b41146101ce57600080fd5b8063095ea7b3116100c8578063095ea7b31461015757806318160ddd1461016c57806323b872dd1461018257806342842e0e1461019557600080fd5b806301ffc9a7146100ef57806306fdde0314610117578063081812fc1461012c575b600080fd5b6101026100fd366004610b9c565b610222565b60405190151581526020015b60405180910390f35b61011f610274565b60405161010e9190610c09565b61013f61013a366004610c1c565b610306565b6040516001600160a01b03909116815260200161010e565b61016a610165366004610c51565b61034a565b005b600154600054035b60405190815260200161010e565b61016a610190366004610c7b565b6103d0565b61016a6101a3366004610c7b565b6103db565b61013f6101b6366004610c1c565b6103f6565b6101746101c9366004610cb7565b610408565b61011f610457565b61016a6101e4366004610cd2565b610466565b61016a6101f7366004610d24565b6104fb565b61011f61020a366004610c1c565b610545565b61010261021d366004610e00565b6105d6565b60006001600160e01b031982166380ac58cd60e01b148061025357506001600160e01b03198216635b5e139f60e01b145b8061026e57506301ffc9a760e01b6001600160e01b03198316145b92915050565b60606002805461028390610e33565b80601f01602080910402602001604051908101604052809291908181526020018280546102af90610e33565b80156102fc5780601f106102d1576101008083540402835291602001916102fc565b820191906000526020600020905b8154815290600101906020018083116102df57829003601f168201915b5050505050905090565b600061031182610604565b61032e576040516333d1c03960e21b815260040160405180910390fd5b506000908152600660205260409020546001600160a01b031690565b6000610355826103f6565b9050806001600160a01b0316836001600160a01b0316036103895760405163250fdee360e21b815260040160405180910390fd5b336001600160a01b038216146103c0576103a381336105d6565b6103c0576040516367d9dca160e11b815260040160405180910390fd5b6103cb83838361062f565b505050565b6103cb83838361068b565b6103cb838383604051806020016040528060008152506104fb565b60006104018261087a565b5192915050565b60006001600160a01b038216610431576040516323d3ad8160e21b815260040160405180910390fd5b506001600160a01b031660009081526005602052604090205467ffffffffffffffff1690565b60606003805461028390610e33565b336001600160a01b0383160361048f5760405163b06307db60e01b815260040160405180910390fd5b3360008181526007602090815260408083206001600160a01b03871680855290835292819020805460ff191686151590811790915590519081529192917f17307eab39ab6107e8899845ad3d59bd9653f200f220920489ca2b5937696c31910160405180910390a35050565b61050684848461068b565b6001600160a01b0383163b1561053f5761052284848484610996565b61053f576040516368d2bf6b60e11b815260040160405180910390fd5b50505050565b606061055082610604565b61056d57604051630a14c4b560e41b815260040160405180910390fd5b600061058460408051602081019091526000815290565b905080516000036105a457604051806020016040528060008152506105cf565b806105ae84610a82565b6040516020016105bf929190610e6d565b6040516020818303038152906040525b9392505050565b6001600160a01b03918216600090815260076020908152604080832093909416825291909152205460ff1690565b600080548210801561026e575050600090815260046020526040902054600160e01b900460ff161590565b60008281526006602052604080822080546001600160a01b0319166001600160a01b0387811691821790925591518593918516917f8c5be1e5ebec7d5bd14f71427d1e84f3dd0314c0f7b2291e5b200ac8c7c3b92591a4505050565b60006106968261087a565b9050836001600160a01b031681600001516001600160a01b0316146106cd5760405162a1148160e81b815260040160405180910390fd5b6000336001600160a01b03861614806106eb57506106eb85336105d6565b806107065750336106fb84610306565b6001600160a01b0316145b90508061072657604051632ce44b5f60e11b815260040160405180910390fd5b6001600160a01b03841661074d57604051633a954ecd60e21b815260040160405180910390fd5b6107596000848761062f565b6001600160a01b038581166000908152600560209081526040808320805467ffffffffffffffff1980821667ffffffffffffffff92831660001901831617909255898616808652838620805493841693831660019081018416949094179055898652600490945282852080546001600160e01b031916909417600160a01b4290921691909102178355870180845292208054919390911661082f57600054821461082f578054602086015167ffffffffffffffff16600160a01b026001600160e01b03199091166001600160a01b038a16171781555b50505082846001600160a01b0316866001600160a01b03167fddf252ad1be2c89b69c2b068fc378daa952ba7f163c4a11628f55a4df523b3ef60405160405180910390a45050505050565b60408051606081018252600080825260208201819052918101919091528160005481101561097d57600081815260046020908152604091829020825160608101845290546001600160a01b0381168252600160a01b810467ffffffffffffffff1692820192909252600160e01b90910460ff1615159181018290529061097b5780516001600160a01b031615610911579392505050565b5060001901600081815260046020908152604091829020825160608101845290546001600160a01b038116808352600160a01b820467ffffffffffffffff1693830193909352600160e01b900460ff1615159281019290925215610976579392505050565b610911565b505b604051636f96cda160e11b815260040160405180910390fd5b604051630a85bd0160e11b81526000906001600160a01b0385169063150b7a02906109cb903390899088908890600401610e9c565b6020604051808303816000875af1925050508015610a06575060408051601f3d908101601f19168201909252610a0391810190610ed9565b60015b610a64573d808015610a34576040519150601f19603f3d011682016040523d82523d6000602084013e610a39565b606091505b508051600003610a5c576040516368d2bf6b60e11b815260040160405180910390fd5b805181602001fd5b6001600160e01b031916630a85bd0160e11b1490505b949350505050565b606081600003610aa95750506040805180820190915260018152600360fc1b602082015290565b8160005b8115610ad35780610abd81610f0c565b9150610acc9050600a83610f3b565b9150610aad565b60008167ffffffffffffffff811115610aee57610aee610d0e565b6040519080825280601f01601f191660200182016040528015610b18576020820181803683370190505b5090505b8415610a7a57610b2d600183610f4f565b9150610b3a600a86610f62565b610b45906030610f76565b60f81b818381518110610b5a57610b5a610f89565b60200101906001600160f81b031916908160001a905350610b7c600a86610f3b565b9450610b1c565b6001600160e01b031981168114610b9957600080fd5b50565b600060208284031215610bae57600080fd5b81356105cf81610b83565b60005b83811015610bd4578181015183820152602001610bbc565b50506000910152565b60008151808452610bf5816020860160208601610bb9565b601f01601f19169290920160200192915050565b6020815260006105cf6020830184610bdd565b600060208284031215610c2e57600080fd5b5035919050565b80356001600160a01b0381168114610c4c57600080fd5b919050565b60008060408385031215610c6457600080fd5b610c6d83610c35565b946020939093013593505050565b600080600060608486031215610c9057600080fd5b610c9984610c35565b9250610ca760208501610c35565b9150604084013590509250925092565b600060208284031215610cc957600080fd5b6105cf82610c35565b60008060408385031215610ce557600080fd5b610cee83610c35565b915060208301358015158114610d0357600080fd5b809150509250929050565b634e487b7160e01b600052604160045260246000fd5b60008060008060808587031215610d3a57600080fd5b610d4385610c35565b9350610d5160208601610c35565b925060408501359150606085013567ffffffffffffffff80821115610d7557600080fd5b818701915087601f830112610d8957600080fd5b813581811115610d9b57610d9b610d0e565b604051601f8201601f19908116603f01168101908382118183101715610dc357610dc3610d0e565b816040528281528a6020848701011115610ddc57600080fd5b82602086016020830137600060208483010152809550505050505092959194509250565b60008060408385031215610e1357600080fd5b610e1c83610c35565b9150610e2a60208401610c35565b90509250929050565b600181811c90821680610e4757607f821691505b602082108103610e6757634e487b7160e01b600052602260045260246000fd5b50919050565b60008351610e7f818460208801610bb9565b835190830190610e93818360208801610bb9565b01949350505050565b6001600160a01b0385811682528416602082015260408101839052608060608201819052600090610ecf90830184610bdd565b9695505050505050565b600060208284031215610eeb57600080fd5b81516105cf81610b83565b634e487b7160e01b600052601160045260246000fd5b600060018201610f1e57610f1e610ef6565b5060010190565b634e487b7160e01b600052601260045260246000fd5b600082610f4a57610f4a610f25565b500490565b8181038181111561026e5761026e610ef6565b600082610f7157610f71610f25565b500690565b8082018082111561026e5761026e610ef6565b634e487b7160e01b600052603260045260246000fdfea2646970667358221220e6377e7843ab3a84e641b6fae68de423e29f51e50aa9d2d3851a2e7b7410eaf164736f6c63430008190033","linkReferences":{}},"methodIdentifiers":{"approve(address,uint256)":"095ea7b3","balanceOf(address)":"70a08231","getApproved(uint256)":"081812fc","isApprovedForAll(address,address)":"e985e9c5","name()":"06fdde03","ownerOf(uint256)":"6352211e","safeTransferFrom(address,address,uint256)":"42842e0e","safeTransferFrom(address,address,uint256,bytes)":"b88d4fde","setApprovalForAll(address,bool)":"a22cb465","supportsInterface(bytes4)":"01ffc9a7","symbol()":"95d89b41","tokenURI(uint256)":"c87b56dd","totalSupply()":"18160ddd","transferFrom(address,address,uint256)":"23b872dd"},"id":2}