{"abi":[{"type":"constructor","inputs":[{"name":"_defaultAdmin","type":"address","internalType":"address"},{"name":"_name","type":"string","internalType":"string"},{"name":"_symbol","type":"string","internalType":"string"},{"name":"_royaltyRecipient","type":"address","internalType":"address"},{"name":"_royaltyBps","type":"uint128","internalType":"uint128"}],"stateMutability":"nonpayable"},{"type":"function","name":"approve","inputs":[{"name":"to","type":"address","internalType":"address"},{"name":"tokenId","type":"uint256","internalType":"uint256"}],"outputs":[],"stateMutability":"nonpayable"},{"type":"function","name":"balanceOf","inputs":[{"name":"owner","type":"address","internalType":"address"}],"outputs":[{"name":"","type":"uint256","internalType":"uint256"}],"stateMutability":"view"},{"type":"function","name":"batchFrozen","inputs":[{"name":"","type":"uint256","internalType":"uint256"}],"outputs":[{"name":"","type":"bool","internalType":"bool"}],"stateMutability":"view"},{"type":"function","name":"batchMintTo","inputs":[{"name":"_to","type":"address","internalType":"address"},{"name":"_quantity","type":"uint256","internalType":"uint256"},{"name":"_baseURI","type":"string","internalType":"string"},{"name":"_data","type":"bytes","internalType":"bytes"}],"outputs":[],"stateMutability":"nonpayable"},{"type":"function","name":"burn","inputs":[{"name":"_tokenId","type":"uint256","internalType":"uint256"}],"outputs":[],"stateMutability":"nonpayable"},{"type":"function","name":"contractURI","inputs":[],"outputs":[{"name":"","type":"string","internalType":"string"}],"stateMutability":"view"},{"type":"function","name":"explicitOwnershipOf","inputs":[{"name":"tokenId","type":"uint256","internalType":"uint256"}],"outputs":[{"name":"","type":"tuple","internalType":"struct IERC721A.TokenOwnership","components":[{"name":"addr","type":"address","internalType":"address"},{"name":"startTimestamp","type":"uint64","internalType":"uint64"},{"name":"burned","type":"bool","internalType":"bool"}]}],"stateMutability":"view"},{"type":"function","name":"explicitOwnershipsOf","inputs":[{"name":"tokenIds","type":"uint256[]","internalType":"uint256[]"}],"outputs":[{"name":"","type":"tuple[]","internalType":"struct IERC721A.TokenOwnership[]","components":[{"name":"addr","type":"address","internalType":"address"},{"name":"startTimestamp","type":"uint64","internalType":"uint64"},{"name":"burned","type":"bool","internalType":"bool"}]}],"stateMutability":"view"},{"type":"function","name":"getApproved","inputs":[{"name":"tokenId","type":"uint256","internalType":"uint256"}],"outputs":[{"name":"","type":"address","internalType":"address"}],"stateMutability":"view"},{"type":"function","name":"getBaseURICount","inputs":[],"outputs":[{"name":"","type":"uint256","internalType":"uint256"}],"stateMutability":"view"},{"type":"function","name":"getBatchIdAtIndex","inputs":[{"name":"_index","type":"uint256","internalType":"uint256"}],"outputs":[{"name":"","type":"uint256","internalType":"uint256"}],"stateMutability":"view"},{"type":"function","name":"getDefaultRoyaltyInfo","inputs":[],"outputs":[{"name":"","type":"address","internalType":"address"},{"name":"","type":"uint16","internalType":"uint16"}],"stateMutability":"view"},{"type":"function","name":"getRoyaltyInfoForToken","inputs":[{"name":"_tokenId","type":"uint256","internalType":"uint256"}],"outputs":[{"name":"","type":"address","internalType":"address"},{"name":"","type":"uint16","internalType":"uint16"}],"stateMutability":"view"},{"type":"function","name":"isApprovedForAll","inputs":[{"name":"owner","type":"address","internalType":"address"},{"name":"operator","type":"address","internalType":"address"}],"outputs":[{"name":"","type":"bool","internalType":"bool"}],"stateMutability":"view"},{"type":"function","name":"isApprovedOrOwner","inputs":[{"name":"_operator","type":"address","internalType":"address"},{"name":"_tokenId","type":"uint256","internalType":"uint256"}],"outputs":[{"name":"isApprovedOrOwnerOf","type":"bool","internalType":"bool"}],"stateMutability":"view"},{"type":"function","name":"mintTo","inputs":[{"name":"_to","type":"address","internalType":"address"},{"name":"_tokenURI","type":"string","internalType":"string"}],"outputs":[],"stateMutability":"nonpayable"},{"type":"function","name":"multicall","inputs":[{"name":"data","type":"bytes[]","internalType":"bytes[]"}],"outputs":[{"name":"results","type":"bytes[]","internalType":"bytes[]"}],"stateMutability":"nonpayable"},{"type":"function","name":"name","inputs":[],"outputs":[{"name":"","type":"string","internalType":"string"}],"stateMutability":"view"},{"type":"function","name":"nextTokenIdToMint","inputs":[],"outputs":[{"name":"","type":"uint256","internalType":"uint256"}],"stateMutability":"view"},{"type":"function","name":"owner","inputs":[],"outputs":[{"name":"","type":"address","internalType":"address"}],"stateMutability":"view"},{"type":"function","name":"ownerOf","inputs":[{"name":"tokenId","type":"uint256","internalType":"uint256"}],"outputs":[{"name":"","type":"address","internalType":"address"}],"stateMutability":"view"},{"type":"function","name":"royaltyInfo","inputs":[{"name":"tokenId","type":"uint256","internalType":"uint256"},{"name":"salePrice","type":"uint256","internalType":"uint256"}],"outputs":[{"name":"receiver","type":"address","internalType":"address"},{"name":"royaltyAmount","type":"uint256","internalType":"uint256"}],"stateMutability":"view"},{"type":"function","name":"safeTransferFrom","inputs":[{"name":"from","type":"address","internalType":"address"},{"name":"to","type":"address","internalType":"address"},{"name":"tokenId","type":"uint256","internalType":"uint256"}],"outputs":[],"stateMutability":"nonpayable"},{"type":"function","name":"safeTransferFrom","inputs":[{"name":"from","type":"address","internalType":"address"},{"name":"to","type":"address","internalType":"address"},{"name":"tokenId","type":"uint256","internalType":"uint256"},{"name":"_data","type":"bytes","internalType":"bytes"}],"outputs":[],"stateMutability":"nonpayable"},{"type":"function","name":"setApprovalForAll","inputs":[{"name":"operator","type":"address","internalType":"address"},{"name":"approved","type":"bool","internalType":"bool"}],"outputs":[],"stateMutability":"nonpayable"},{"type":"function","name":"setContractURI","inputs":[{"name":"_uri","type":"string","internalType":"string"}],"outputs":[],"stateMutability":"nonpayable"},{"type":"function","name":"setDefaultRoyaltyInfo","inputs":[{"name":"_royaltyRecipient","type":"address","internalType":"address"},{"name":"_royaltyBps","type":"uint256","internalType":"uint256"}],"outputs":[],"stateMutability":"nonpayable"},{"type":"function","name":"setOwner","inputs":[{"name":"_newOwner","type":"address","internalType":"address"}],"outputs":[],"stateMutability":"nonpayable"},{"type":"function","name":"setRoyaltyInfoForToken","inputs":[{"name":"_tokenId","type":"uint256","internalType":"uint256"},{"name":"_recipient","type":"address","internalType":"address"},{"name":"_bps","type":"uint256","internalType":"uint256"}],"outputs":[],"stateMutability":"nonpayable"},{"type":"function","name":"supportsInterface","inputs":[{"name":"interfaceId","type":"bytes4","internalType":"bytes4"}],"outputs":[{"name":"","type":"bool","internalType":"bool"}],"stateMutability":"view"},{"type":"function","name":"symbol","inputs":[],"outputs":[{"name":"","type":"string","internalType":"string"}],"stateMutability":"view"},{"type":"function","name":"tokenURI","inputs":[{"name":"_tokenId","type":"uint256","internalType":"uint256"}],"outputs":[{"name":"","type":"string","internalType":"string"}],"stateMutability":"view"},{"type":"function","name":"tokensOfOwner","inputs":[{"name":"owner","type":"address","internalType":"address"}],"outputs":[{"name":"","type":"uint256[]","internalType":"uint256[]"}],"stateMutability":"view"},{"type":"function","name":"tokensOfOwnerIn","inputs":[{"name":"owner","type":"address","internalType":"address"},{"name":"start","type":"uint256","internalType":"uint256"},{"name":"stop","type":"uint256","internalType":"uint256"}],"outputs":[{"name":"","type":"uint256[]","internalType":"uint256[]"}],"stateMutability":"view"},{"type":"function","name":"totalSupply","inputs":[],"outputs":[{"name":"","type":"uint256","internalType":"uint256"}],"stateMutability":"view"},{"type":"function","name":"transferFrom","inputs":[{"name":"from","type":"address","internalType":"address"},{"name":"to","type":"address","internalType":"address"},{"name":"tokenId","type":"uint256","internalType":"uint256"}],"outputs":[],"stateMutability":"nonpayable"},{"type":"event","name":"Approval","inputs":[{"name":"owner","type":"address","indexed":true,"internalType":"address"},{"name":"approved","type":"address","indexed":true,"internalType":"address"},{"name":"tokenId","type":"uint256","indexed":true,"internalType":"uint256"}],"anonymous":false},{"type":"event","name":"ApprovalForAll","inputs":[{"name":"owner","type":"address","indexed":true,"internalType":"address"},{"name":"operator","type":"address","indexed":true,"internalType":"address"},{"name":"approved","type":"bool","indexed":false,"internalType":"bool"}],"anonymous":false},{"type":"event","name":"BatchMetadataUpdate","inputs":[{"name":"_fromTokenId","type":"uint256","indexed":false,"internalType":"uint256"},{"name":"_toTokenId","type":"uint256","indexed":false,"internalType":"uint256"}],"anonymous":false},{"type":"event","name":"ContractURIUpdated","inputs":[{"name":"prevURI","type":"string","indexed":false,"internalType":"string"},{"name":"newURI","type":"string","indexed":false,"internalType":"string"}],"anonymous":false},{"type":"event","name":"DefaultRoyalty","inputs":[{"name":"newRoyaltyRecipient","type":"address","indexed":true,"internalType":"address"},{"name":"newRoyaltyBps","type":"uint256","indexed":false,"internalType":"uint256"}],"anonymous":false},{"type":"event","name":"MetadataFrozen","inputs":[],"anonymous":false},{"type":"event","name":"OwnerUpdated","inputs":[{"name":"prevOwner","type":"address","indexed":true,"internalType":"address"},{"name":"newOwner","type":"address","indexed":true,"internalType":"address"}],"anonymous":false},{"type":"event","name":"RoyaltyForToken","inputs":[{"name":"tokenId","type":"uint256","indexed":true,"internalType":"uint256"},{"name":"royaltyRecipient","type":"address","indexed":true,"internalType":"address"},{"name":"royaltyBps","type":"uint256","indexed":false,"internalType":"uint256"}],"anonymous":false},{"type":"event","name":"Transfer","inputs":[{"name":"from","type":"address","indexed":true,"internalType":"address"},{"name":"to","type":"address","indexed":true,"internalType":"address"},{"name":"tokenId","type":"uint256","indexed":true,"internalType":"uint256"}],"anonymous":false},{"type":"error","name":"ApprovalCallerNotOwnerNorApproved","inputs":[]},{"type":"error","name":"ApprovalQueryForNonexistentToken","inputs":[]},{"type":"error","name":"ApprovalToCurrentOwner","inputs":[]},{"type":"error","name":"ApproveToCaller","inputs":[]},{"type":"error","name":"BalanceQueryForZeroAddress","inputs":[]},{"type":"error","name":"BatchMintInvalidBatchId","inputs":[{"name":"index","type":"uint256","internalType":"uint256"}]},{"type":"error","name":"BatchMintInvalidTokenId","inputs":[{"name":"tokenId","type":"uint256","internalType":"uint256"}]},{"type":"error","name":"BatchMintMetadataFrozen","inputs":[{"name":"batchId","type":"uint256","internalType":"uint256"}]},{"type":"error","name":"ContractMetadataUnauthorized","inputs":[]},{"type":"error","name":"InvalidQueryRange","inputs":[]},{"type":"error","name":"MintToZeroAddress","inputs":[]},{"type":"error","name":"MintZeroQuantity","inputs":[]},{"type":"error","name":"OwnableUnauthorized","inputs":[]},{"type":"error","name":"OwnerQueryForNonexistentToken","inputs":[]},{"type":"error","name":"RoyaltyExceededMaxFeeBps","inputs":[{"name":"max","type":"uint256","internalType":"uint256"},{"name":"actual","type":"uint256","internalType":"uint256"}]},{"type":"error","name":"RoyaltyInvalidRecipient","inputs":[{"name":"recipient","type":"address","internalType":"address"}]},{"type":"error","name":"RoyaltyUnauthorized","inputs":[]},{"type":"error","name":"TransferCallerNotOwnerNorApproved","inputs":[]},{"type":"error","name":"TransferFromIncorrectOwner","inputs":[]},{"type":"error","name":"TransferToNonERC721ReceiverImplementer","inputs":[]},{"type":"error","name":"TransferToZeroAddress","inputs":[]},{"type":"error","name":"URIQueryForNonexistentToken","inputs":[]}],"bytecode":{"object":"0x608060405234801561001057600080fd5b506040516130c33803806130c383398101604081905261002f91610237565b8383600261003d8382610369565b50600361004a8282610369565b5050600080555061005a85610077565b61006d826001600160801b0383166100c9565b5050505050610428565b600980546001600160a01b038381166001600160a01b0319831681179093556040519116919082907f8292fce18fa69edf4db7b94ea2e58241df0ae57f97e0a6c9b29067028bf92d7690600090a35050565b6127108111156100fb57604051630a4930ad60e31b815261271060048201526024810182905260440160405180910390fd5b600a80546001600160a01b0384166001600160b01b03199091168117600160a01b61ffff851602179091556040518281527f90d7ec04bcb8978719414f82e52e4cb651db41d0e6f8cea6118c2191e6183adb9060200160405180910390a25050565b80516001600160a01b038116811461017457600080fd5b919050565b634e487b7160e01b600052604160045260246000fd5b600082601f8301126101a057600080fd5b81516001600160401b03808211156101ba576101ba610179565b604051601f8301601f19908116603f011681019082821181831017156101e2576101e2610179565b81604052838152602092508660208588010111156101ff57600080fd5b600091505b838210156102215785820183015181830184015290820190610204565b6000602085830101528094505050505092915050565b600080600080600060a0868803121561024f57600080fd5b6102588661015d565b60208701519095506001600160401b038082111561027557600080fd5b61028189838a0161018f565b9550604088015191508082111561029757600080fd5b506102a48882890161018f565b9350506102b36060870161015d565b60808701519092506001600160801b03811681146102d057600080fd5b809150509295509295909350565b600181811c908216806102f257607f821691505b60208210810361031257634e487b7160e01b600052602260045260246000fd5b50919050565b601f821115610364576000816000526020600020601f850160051c810160208610156103415750805b601f850160051c820191505b818110156103605782815560010161034d565b5050505b505050565b81516001600160401b0381111561038257610382610179565b6103968161039084546102de565b84610318565b602080601f8311600181146103cb57600084156103b35750858301515b600019600386901b1c1916600185901b178555610360565b600085815260208120601f198616915b828110156103fa578886015182559484019460019091019084016103db565b50858210156104185787850151600019600388901b60f8161c191681555b5050505050600190811b01905550565b612c8c806104376000396000f3fe608060405234801561001057600080fd5b506004361061021b5760003560e01c806363b45e2d116101255780639bcf7a15116100ad578063b88d4fde1161007c578063b88d4fde14610501578063c23dc68f14610514578063c87b56dd14610534578063e8a3d48514610547578063e985e9c51461054f57600080fd5b80639bcf7a151461049d578063a22cb465146104b0578063ac9650d8146104c3578063b24f2d39146104e357600080fd5b80638462151c116100f45780638462151c1461043e5780638da5cb5b1461045e578063938e3d7b1461046f57806395d89b411461048257806399a2557a1461048a57600080fd5b806363b45e2d146103ed57806370a08231146103f5578063754a81d914610408578063830405321461041b57600080fd5b80632a55205a116101a8578063430c208111610177578063430c20811461035f5780634cc157df146103725780635bbb2177146103a7578063600dd5ea146103c75780636352211e146103da57600080fd5b80632a55205a146102ff5780633b1475a71461033157806342842e0e1461033957806342966c681461034c57600080fd5b8063095ea7b3116101ef578063095ea7b31461029d57806313af4035146102b057806318160ddd146102c357806323b872dd146102d95780632419f51b146102ec57600080fd5b806275a3171461022057806301ffc9a71461023557806306fdde031461025d578063081812fc14610272575b600080fd5b61023361022e366004612304565b61058b565b005b610248610243366004612367565b61060f565b60405190151581526020015b60405180910390f35b61026561067c565b60405161025491906123d4565b6102856102803660046123e7565b61070e565b6040516001600160a01b039091168152602001610254565b6102336102ab366004612400565b610752565b6102336102be36600461242a565b6107d8565b600154600054035b604051908152602001610254565b6102336102e7366004612445565b610809565b6102cb6102fa3660046123e7565b610814565b61031261030d366004612481565b610866565b604080516001600160a01b039093168352602083019190915201610254565b6000546102cb565b610233610347366004612445565b6108a3565b61023361035a3660046123e7565b6108be565b61024861036d366004612400565b6108c9565b6103856103803660046123e7565b610948565b604080516001600160a01b03909316835261ffff909116602083015201610254565b6103ba6103b53660046124a3565b6109b3565b6040516102549190612548565b6102336103d5366004612400565b610a79565b6102856103e83660046123e7565b610aa8565b600c546102cb565b6102cb61040336600461242a565b610aba565b6102336104163660046125b2565b610b08565b6102486104293660046123e7565b600e6020526000908152604090205460ff1681565b61045161044c36600461242a565b610b7c565b604051610254919061262f565b6009546001600160a01b0316610285565b61023361047d366004612667565b610cc1565b610265610cef565b61045161049836600461269b565b610cfe565b6102336104ab3660046126ce565b610eb1565b6102336104be3660046126f3565b610ee1565b6104d66104d136600461272f565b610f76565b60405161025491906127a3565b600a546001600160a01b03811690600160a01b900461ffff16610385565b61023361050f366004612807565b6110db565b6105276105223660046123e7565b61111f565b6040516102549190612862565b6102656105423660046123e7565b6111cd565b6102656112bb565b61024861055d366004612897565b6001600160a01b03918216600090815260076020908152604080832093909416825291909152205460ff1690565b610593611349565b6105de5760405162461bcd60e51b81526020600482015260176024820152762737ba1030baba3437b934bd32b2103a379036b4b73a1760491b60448201526064015b60405180910390fd5b6105f06105ea60005490565b82611376565b61060b826001604051806020016040528060008152506113e8565b5050565b60006301ffc9a760e01b6001600160e01b03198316148061064057506380ac58cd60e01b6001600160e01b03198316145b8061065b5750635b5e139f60e01b6001600160e01b03198316145b8061067657506001600160e01b0319821663152a902d60e11b145b92915050565b60606002805461068b906128ca565b80601f01602080910402602001604051908101604052809291908181526020018280546106b7906128ca565b80156107045780601f106106d957610100808354040283529160200191610704565b820191906000526020600020905b8154815290600101906020018083116106e757829003601f168201915b5050505050905090565b60006107198261158b565b610736576040516333d1c03960e21b815260040160405180910390fd5b506000908152600660205260409020546001600160a01b031690565b600061075d82610aa8565b9050806001600160a01b0316836001600160a01b0316036107915760405163250fdee360e21b815260040160405180910390fd5b336001600160a01b038216146107c8576107ab813361055d565b6107c8576040516367d9dca160e11b815260040160405180910390fd5b6107d38383836115b6565b505050565b6107e0611349565b6107fd576040516316ccb9cb60e11b815260040160405180910390fd5b61080681611612565b50565b6107d3838383611664565b600061081f600c5490565b821061084157604051630793127760e11b8152600481018390526024016105d5565b600c828154811061085457610854612904565b90600052602060002001549050919050565b60008060008061087586610948565b90945084925061ffff16905061271061088e8287612930565b610898919061295d565b925050509250929050565b6107d3838383604051806020016040528060008152506110db565b61080681600161183f565b6000806108d583610aa8565b9050806001600160a01b0316846001600160a01b0316148061091c57506001600160a01b0380821660009081526007602090815260408083209388168352929052205460ff165b806109405750836001600160a01b03166109358461070e565b6001600160a01b0316145b949350505050565b6000818152600b60209081526040808320815180830190925280546001600160a01b03168083526001909101549282019290925282911561098f57805160208201516109a9565b600a546001600160a01b03811690600160a01b900461ffff165b9250925050915091565b80516060906000816001600160401b038111156109d2576109d261224f565b604051908082528060200260200182016040528015610a1d57816020015b60408051606081018252600080825260208083018290529282015282526000199092019101816109f05790505b50905060005b828114610a7157610a4c858281518110610a3f57610a3f612904565b602002602001015161111f565b828281518110610a5e57610a5e612904565b6020908102919091010152600101610a23565b509392505050565b610a81611349565b610a9e57604051636fae358160e11b815260040160405180910390fd5b61060b82826119f2565b6000610ab382611a82565b5192915050565b60006001600160a01b038216610ae3576040516323d3ad8160e21b815260040160405180910390fd5b506001600160a01b03166000908152600560205260409020546001600160401b031690565b610b10611349565b610b565760405162461bcd60e51b81526020600482015260176024820152762737ba1030baba3437b934bd32b2103a379036b4b73a1760491b60448201526064016105d5565b610b69610b6260005490565b8484611b9c565b5050610b768484836113e8565b50505050565b60606000806000610b8c85610aba565b90506000816001600160401b03811115610ba857610ba861224f565b604051908082528060200260200182016040528015610bd1578160200160208202803683370190505b509050610bf7604080516060810182526000808252602082018190529181019190915290565b60005b838614610cb557600081815260046020908152604091829020825160608101845290546001600160a01b0381168252600160a01b81046001600160401b031692820192909252600160e01b90910460ff1615159181018290529250610cad5781516001600160a01b031615610c6e57815194505b876001600160a01b0316856001600160a01b031603610cad5780838780600101985081518110610ca057610ca0612904565b6020026020010181815250505b600101610bfa565b50909695505050505050565b610cc9611349565b610ce657604051639f7f092560e01b815260040160405180910390fd5b61080681611c00565b60606003805461068b906128ca565b6060818310610d2057604051631960ccad60e11b815260040160405180910390fd5b6000805480841115610d30578093505b6000610d3b87610aba565b905084861015610d5a5785850381811015610d54578091505b50610d5e565b5060005b6000816001600160401b03811115610d7857610d7861224f565b604051908082528060200260200182016040528015610da1578160200160208202803683370190505b50905081600003610db7579350610eaa92505050565b6000610dc28861111f565b905060008160400151610dd3575080515b885b888114158015610de55750848714155b15610e9e57600081815260046020908152604091829020825160608101845290546001600160a01b0381168252600160a01b81046001600160401b031692820192909252600160e01b90910460ff1615159181018290529350610e965782516001600160a01b031615610e5757825191505b8a6001600160a01b0316826001600160a01b031603610e965780848880600101995081518110610e8957610e89612904565b6020026020010181815250505b600101610dd5565b50505092835250909150505b9392505050565b610eb9611349565b610ed657604051636fae358160e11b815260040160405180910390fd5b6107d3838383611cdc565b336001600160a01b03831603610f0a5760405163b06307db60e01b815260040160405180910390fd5b3360008181526007602090815260408083206001600160a01b03871680855290835292819020805460ff191686151590811790915590519081529192917f17307eab39ab6107e8899845ad3d59bd9653f200f220920489ca2b5937696c31910160405180910390a35050565b6060816001600160401b03811115610f9057610f9061224f565b604051908082528060200260200182016040528015610fc357816020015b6060815260200190600190039081610fae5790505b509050336000805b848110156110d257811561104a5761102830878784818110610fef57610fef612904565b90506020028101906110019190612971565b86604051602001611014939291906129be565b604051602081830303815290604052611d8f565b84828151811061103a5761103a612904565b60200260200101819052506110ca565b6110ac3087878481811061106057611060612904565b90506020028101906110729190612971565b8080601f016020809104026020016040519081016040528093929190818152602001838380828437600092019190915250611d8f92505050565b8482815181106110be576110be612904565b60200260200101819052505b600101610fcb565b50505092915050565b6110e6848484611664565b6001600160a01b0383163b15610b765761110284848484611db4565b610b76576040516368d2bf6b60e11b815260040160405180910390fd5b60408051606080820183526000808352602080840182905283850182905284519283018552818352820181905292810183905290915060005483106111645792915050565b50600082815260046020908152604091829020825160608101845290546001600160a01b0381168252600160a01b81046001600160401b031692820192909252600160e01b90910460ff1615801592820192909252906111c45792915050565b610eaa83611a82565b6000818152600f60205260408120805460609291906111eb906128ca565b80601f0160208091040260200160405190810160405280929190818152602001828054611217906128ca565b80156112645780601f1061123957610100808354040283529160200191611264565b820191906000526020600020905b81548152906001019060200180831161124757829003601f168201915b5050505050905060008151111561127b5792915050565b600061128684611e9f565b9050806112928561201d565b6040516020016112a39291906129e4565b60405160208183030381529060405292505050919050565b600880546112c8906128ca565b80601f01602080910402602001604051908101604052809291908181526020018280546112f4906128ca565b80156113415780601f1061131657610100808354040283529160200191611341565b820191906000526020600020905b81548152906001019060200180831161132457829003601f168201915b505050505081565b600061135d6009546001600160a01b031690565b6001600160a01b0316336001600160a01b031614905090565b6000828152600f60205260409020805461138f906128ca565b1590506113d05760405162461bcd60e51b815260206004820152600f60248201526e15549248185b1c9958591e481cd95d608a1b60448201526064016105d5565b6000828152600f602052604090206107d38282612a63565b6000546001600160a01b03841661141157604051622e076360e81b815260040160405180910390fd5b826000036114325760405163b562e8dd60e01b815260040160405180910390fd5b6001600160a01b038416600081815260056020908152604080832080546fffffffffffffffffffffffffffffffff1981166001600160401b038083168b0181169182176801000000000000000067ffffffffffffffff1990941690921783900481168b01811690920217909155858452600490925290912080546001600160e01b0319168317600160a01b42909316929092029190911790558190818501903b15611548575b60405182906001600160a01b03881690600090600080516020612c37833981519152908290a46115116000878480600101955087611db4565b61152e576040516368d2bf6b60e11b815260040160405180910390fd5b8082106114d857826000541461154357600080fd5b61157b565b5b6040516001830192906001600160a01b03881690600090600080516020612c37833981519152908290a4808210611549575b506000908155610b769085838684565b6000805482108015610676575050600090815260046020526040902054600160e01b900460ff161590565b60008281526006602052604080822080546001600160a01b0319166001600160a01b0387811691821790925591518593918516917f8c5be1e5ebec7d5bd14f71427d1e84f3dd0314c0f7b2291e5b200ac8c7c3b92591a4505050565b600980546001600160a01b038381166001600160a01b0319831681179093556040519116919082907f8292fce18fa69edf4db7b94ea2e58241df0ae57f97e0a6c9b29067028bf92d7690600090a35050565b600061166f82611a82565b9050836001600160a01b031681600001516001600160a01b0316146116a65760405162a1148160e81b815260040160405180910390fd5b6000336001600160a01b03861614806116c457506116c4853361055d565b806116df5750336116d48461070e565b6001600160a01b0316145b9050806116ff57604051632ce44b5f60e11b815260040160405180910390fd5b6001600160a01b03841661172657604051633a954ecd60e21b815260040160405180910390fd5b611732600084876115b6565b6001600160a01b038581166000908152600560209081526040808320805467ffffffffffffffff198082166001600160401b0392831660001901831617909255898616808652838620805493841693831660019081018416949094179055898652600490945282852080546001600160e01b031916909417600160a01b4290921691909102178355870180845292208054919390911661180657600054821461180657805460208601516001600160401b0316600160a01b026001600160e01b03199091166001600160a01b038a16171781555b50505082846001600160a01b0316866001600160a01b0316600080516020612c3783398151915260405160405180910390a45050505050565b600061184a83611a82565b805190915082156118b0576000336001600160a01b03831614806118735750611873823361055d565b8061188e5750336118838661070e565b6001600160a01b0316145b9050806118ae57604051632ce44b5f60e11b815260040160405180910390fd5b505b6118bc600085836115b6565b6001600160a01b0380821660008181526005602090815260408083208054600160801b6000196001600160401b0380841691909101811667ffffffffffffffff198416811783900482166001908101831690930277ffffffffffffffff0000000000000000ffffffffffffffff19909416179290921783558b86526004909452828520805460ff60e01b1942909316600160a01b026001600160e01b03199091169097179690961716600160e01b1785559189018084529220805491949091166119ba5760005482146119ba57805460208701516001600160401b0316600160a01b026001600160e01b03199091166001600160a01b038716171781555b5050604051869250600091506001600160a01b03841690600080516020612c37833981519152908390a4505060018054810190555050565b612710811115611a2057604051630a4930ad60e31b81526127106004820152602481018290526044016105d5565b600a80546001600160a01b0384166001600160b01b03199091168117600160a01b61ffff851602179091556040518281527f90d7ec04bcb8978719414f82e52e4cb651db41d0e6f8cea6118c2191e6183adb9060200160405180910390a25050565b604080516060810182526000808252602082018190529181019190915281600054811015611b8357600081815260046020908152604091829020825160608101845290546001600160a01b0381168252600160a01b81046001600160401b031692820192909252600160e01b90910460ff16151591810182905290611b815780516001600160a01b031615611b18579392505050565b5060001901600081815260046020908152604091829020825160608101845290546001600160a01b038116808352600160a01b82046001600160401b031693830193909352600160e01b900460ff1615159281019290925215611b7c579392505050565b611b18565b505b604051636f96cda160e11b815260040160405180910390fd5b600080611ba98486612b22565b600c8054600181019091557fdf6966c971051c3d54ec59162606531493a51404a002842f56009d7e5cf4a8c7018190556000818152600d60205260409020909250829150611bf78482612a63565b50935093915050565b600060088054611c0f906128ca565b80601f0160208091040260200160405190810160405280929190818152602001828054611c3b906128ca565b8015611c885780601f10611c5d57610100808354040283529160200191611c88565b820191906000526020600020905b815481529060010190602001808311611c6b57829003601f168201915b505050505090508160089081611c9e9190612a63565b507fc9c7c3fe08b88b4df9d4d47ef47d2c43d55c025a0ba88ca442580ed9e7348a168183604051611cd0929190612b35565b60405180910390a15050565b612710811115611d0a57604051630a4930ad60e31b81526127106004820152602481018290526044016105d5565b6040805180820182526001600160a01b0384811680835260208084018681526000898152600b8352869020945185546001600160a01b031916941693909317845591516001909301929092559151838152909185917f7365cf4122f072a3365c20d54eff9b38d73c096c28e1892ec8f5b0e403a0f12d910160405180910390a3505050565b6060610eaa8383604051806060016040528060278152602001612c106027913961211d565b604051630a85bd0160e11b81526000906001600160a01b0385169063150b7a0290611de9903390899088908890600401612b63565b6020604051808303816000875af1925050508015611e24575060408051601f3d908101601f19168201909252611e2191810190612b96565b60015b611e82573d808015611e52576040519150601f19603f3d011682016040523d82523d6000602084013e611e57565b606091505b508051600003611e7a576040516368d2bf6b60e11b815260040160405180910390fd5b805181602001fd5b6001600160e01b031916630a85bd0160e11b149050949350505050565b60606000611eac600c5490565b90506000600c805480602002602001604051908101604052809291908181526020018280548015611efc57602002820191906000526020600020905b815481526020019060010190808311611ee8575b5050505050905060005b8281101561200057818181518110611f2057611f20612904565b6020026020010151851015611fee57600d6000838381518110611f4557611f45612904565b602002602001015181526020019081526020016000208054611f66906128ca565b80601f0160208091040260200160405190810160405280929190818152602001828054611f92906128ca565b8015611fdf5780601f10611fb457610100808354040283529160200191611fdf565b820191906000526020600020905b815481529060010190602001808311611fc257829003601f168201915b50505050509350505050919050565b611ff9600182612b22565b9050611f06565b506040516309797f6960e21b8152600481018590526024016105d5565b6060816000036120445750506040805180820190915260018152600360fc1b602082015290565b8160005b811561206e578061205881612bb3565b91506120679050600a8361295d565b9150612048565b6000816001600160401b038111156120885761208861224f565b6040519080825280601f01601f1916602001820160405280156120b2576020820181803683370190505b5090505b8415610940576120c7600183612bcc565b91506120d4600a86612bdf565b6120df906030612b22565b60f81b8183815181106120f4576120f4612904565b60200101906001600160f81b031916908160001a905350612116600a8661295d565b94506120b6565b6060600080856001600160a01b03168560405161213a9190612bf3565b600060405180830381855af49150503d8060008114612175576040519150601f19603f3d011682016040523d82523d6000602084013e61217a565b606091505b509150915061218b86838387612195565b9695505050505050565b606083156122045782516000036121fd576001600160a01b0385163b6121fd5760405162461bcd60e51b815260206004820152601d60248201527f416464726573733a2063616c6c20746f206e6f6e2d636f6e747261637400000060448201526064016105d5565b5081610940565b61094083838151156122195781518083602001fd5b8060405162461bcd60e51b81526004016105d591906123d4565b80356001600160a01b038116811461224a57600080fd5b919050565b634e487b7160e01b600052604160045260246000fd5b604051601f8201601f191681016001600160401b038111828210171561228d5761228d61224f565b604052919050565b600082601f8301126122a657600080fd5b81356001600160401b038111156122bf576122bf61224f565b6122d2601f8201601f1916602001612265565b8181528460208386010111156122e757600080fd5b816020850160208301376000918101602001919091529392505050565b6000806040838503121561231757600080fd5b61232083612233565b915060208301356001600160401b0381111561233b57600080fd5b61234785828601612295565b9150509250929050565b6001600160e01b03198116811461080657600080fd5b60006020828403121561237957600080fd5b8135610eaa81612351565b60005b8381101561239f578181015183820152602001612387565b50506000910152565b600081518084526123c0816020860160208601612384565b601f01601f19169290920160200192915050565b602081526000610eaa60208301846123a8565b6000602082840312156123f957600080fd5b5035919050565b6000806040838503121561241357600080fd5b61241c83612233565b946020939093013593505050565b60006020828403121561243c57600080fd5b610eaa82612233565b60008060006060848603121561245a57600080fd5b61246384612233565b925061247160208501612233565b9150604084013590509250925092565b6000806040838503121561249457600080fd5b50508035926020909101359150565b600060208083850312156124b657600080fd5b82356001600160401b03808211156124cd57600080fd5b818501915085601f8301126124e157600080fd5b8135818111156124f3576124f361224f565b8060051b9150612504848301612265565b818152918301840191848101908884111561251e57600080fd5b938501935b8385101561253c57843582529385019390850190612523565b98975050505050505050565b6020808252825182820181905260009190848201906040850190845b81811015610cb55761259f83855180516001600160a01b031682526020808201516001600160401b0316908301526040908101511515910152565b9284019260609290920191600101612564565b600080600080608085870312156125c857600080fd5b6125d185612233565b93506020850135925060408501356001600160401b03808211156125f457600080fd5b61260088838901612295565b9350606087013591508082111561261657600080fd5b5061262387828801612295565b91505092959194509250565b6020808252825182820181905260009190848201906040850190845b81811015610cb55783518352928401929184019160010161264b565b60006020828403121561267957600080fd5b81356001600160401b0381111561268f57600080fd5b61094084828501612295565b6000806000606084860312156126b057600080fd5b6126b984612233565b95602085013595506040909401359392505050565b6000806000606084860312156126e357600080fd5b8335925061247160208501612233565b6000806040838503121561270657600080fd5b61270f83612233565b91506020830135801515811461272457600080fd5b809150509250929050565b6000806020838503121561274257600080fd5b82356001600160401b038082111561275957600080fd5b818501915085601f83011261276d57600080fd5b81358181111561277c57600080fd5b8660208260051b850101111561279157600080fd5b60209290920196919550909350505050565b600060208083016020845280855180835260408601915060408160051b87010192506020870160005b828110156127fa57603f198886030184526127e88583516123a8565b945092850192908501906001016127cc565b5092979650505050505050565b6000806000806080858703121561281d57600080fd5b61282685612233565b935061283460208601612233565b92506040850135915060608501356001600160401b0381111561285657600080fd5b61262387828801612295565b81516001600160a01b031681526020808301516001600160401b03169082015260408083015115159082015260608101610676565b600080604083850312156128aa57600080fd5b6128b383612233565b91506128c160208401612233565b90509250929050565b600181811c908216806128de57607f821691505b6020821081036128fe57634e487b7160e01b600052602260045260246000fd5b50919050565b634e487b7160e01b600052603260045260246000fd5b634e487b7160e01b600052601160045260246000fd5b80820281158282048414176106765761067661291a565b634e487b7160e01b600052601260045260246000fd5b60008261296c5761296c612947565b500490565b6000808335601e1984360301811261298857600080fd5b8301803591506001600160401b038211156129a257600080fd5b6020019150368190038213156129b757600080fd5b9250929050565b8284823760609190911b6bffffffffffffffffffffffff19169101908152601401919050565b600083516129f6818460208801612384565b835190830190612a0a818360208801612384565b01949350505050565b601f8211156107d3576000816000526020600020601f850160051c81016020861015612a3c5750805b601f850160051c820191505b81811015612a5b57828155600101612a48565b505050505050565b81516001600160401b03811115612a7c57612a7c61224f565b612a9081612a8a84546128ca565b84612a13565b602080601f831160018114612ac55760008415612aad5750858301515b600019600386901b1c1916600185901b178555612a5b565b600085815260208120601f198616915b82811015612af457888601518255948401946001909101908401612ad5565b5085821015612b125787850151600019600388901b60f8161c191681555b5050505050600190811b01905550565b808201808211156106765761067661291a565b604081526000612b4860408301856123a8565b8281036020840152612b5a81856123a8565b95945050505050565b6001600160a01b038581168252841660208201526040810183905260806060820181905260009061218b908301846123a8565b600060208284031215612ba857600080fd5b8151610eaa81612351565b600060018201612bc557612bc561291a565b5060010190565b818103818111156106765761067661291a565b600082612bee57612bee612947565b500690565b60008251612c05818460208701612384565b919091019291505056fe416464726573733a206c6f772d6c6576656c2064656c65676174652063616c6c206661696c6564ddf252ad1be2c89b69c2b068fc378daa952ba7f163c4a11628f55a4df523b3efa26469706673582212201784c44e883d382662222e4828d0b68cb8a4d4c4555f49c6dcd4e974fa2ab0fd64736f6c63430008190033","linkReferences":{}},"methodIdentifiers":{"approve(address,uint256)":"095ea7b3","balanceOf(address)":"70a08231","batchFrozen(uint256)":"83040532","batchMintTo(address,uint256,string,bytes)":"754a81d9","burn(uint256)":"42966c68","contractURI()":"e8a3d485","explicitOwnershipOf(uint256)":"c23dc68f","explicitOwnershipsOf(uint256[])":"5bbb2177","getApproved(uint256)":"081812fc","getBaseURICount()":"63b45e2d","getBatchIdAtIndex(uint256)":"2419f51b","getDefaultRoyaltyInfo()":"b24f2d39","getRoyaltyInfoForToken(uint256)":"4cc157df","isApprovedForAll(address,address)":"e985e9c5","isApprovedOrOwner(address,uint256)":"430c2081","mintTo(address,string)":"0075a317","multicall(bytes[])":"ac9650d8","name()":"06fdde03","nextTokenIdToMint()":"3b1475a7","owner()":"8da5cb5b","ownerOf(uint256)":"6352211e","royaltyInfo(uint256,uint256)":"2a55205a","safeTransferFrom(address,address,uint256)":"42842e0e","safeTransferFrom(address,address,uint256,bytes)":"b88d4fde","setApprovalForAll(address,bool)":"a22cb465","setContractURI(string)":"938e3d7b","setDefaultRoyaltyInfo(address,uint256)":"600dd5ea","setOwner(address)":"13af4035","setRoyaltyInfoForToken(uint256,address,uint256)":"9bcf7a15","supportsInterface(bytes4)":"01ffc9a7","symbol()":"95d89b41","tokenURI(uint256)":"c87b56dd","tokensOfOwner(address)":"8462151c","tokensOfOwnerIn(address,uint256,uint256)":"99a2557a","totalSupply()":"18160ddd","transferFrom(address,address,uint256)":"23b872dd"},"id":0}