{"abi":[{"type":"function","name":"batchFrozen","inputs":[{"name":"","type":"uint256","internalType":"uint256"}],"outputs":[{"name":"","type":"bool","internalType":"bool"}],"stateMutability":"view"},{"type":"function","name":"getBaseURICount","inputs":[],"outputs":[{"name":"","type":"uint256","internalType":"uint256"}],"stateMutability":"view"},{"type":"function","name":"getBatchIdAtIndex","inputs":[{"name":"_index","type":"uint256","internalType":"uint256"}],"outputs":[{"name":"","type":"uint256","internalType":"uint256"}],"stateMutability":"view"},{"type":"event","name":"BatchMetadataUpdate","inputs":[{"name":"_fromTokenId","type":"uint256","indexed":false,"internalType":"uint256"},{"name":"_toTokenId","type":"uint256","indexed":false,"internalType":"uint256"}],"anonymous":false},{"type":"event","name":"MetadataFrozen","inputs":[],"anonymous":false},{"type":"error","name":"BatchMintInvalidBatchId","inputs":[{"name":"index","type":"uint256","internalType":"uint256"}]},{"type":"error","name":"BatchMintInvalidTokenId","inputs":[{"name":"tokenId","type":"uint256","internalType":"uint256"}]},{"type":"error","name":"BatchMintMetadataFrozen","inputs":[{"name":"batchId","type":"uint256","internalType":"uint256"}]}],"bytecode":{"object":"0x6080604052348015600f57600080fd5b5061015b8061001f6000396000f3fe608060405234801561001057600080fd5b50600436106100415760003560e01c80632419f51b1461004657806363b45e2d1461006c5780638304053214610074575b600080fd5b6100596100543660046100f6565b6100a7565b6040519081526020015b60405180910390f35b600054610059565b6100976100823660046100f6565b60026020526000908152604090205460ff1681565b6040519015158152602001610063565b6000805482106100d157604051630793127760e11b81526004810183905260240160405180910390fd5b600082815481106100e4576100e461010f565b90600052602060002001549050919050565b60006020828403121561010857600080fd5b5035919050565b634e487b7160e01b600052603260045260246000fdfea26469706673582212200be6bb0176afca5170084514ad3773d0d128972554eab575120df317e272d38564736f6c63430008190033","linkReferences":{}},"methodIdentifiers":{"batchFrozen(uint256)":"83040532","getBaseURICount()":"63b45e2d","getBatchIdAtIndex(uint256)":"2419f51b"},"id":11}