{"abi":[{"type":"constructor","inputs":[{"name":"_entryCost","type":"uint256","internalType":"uint256"}],"stateMutability":"nonpayable"},{"type":"function","name":"buyEntry","inputs":[{"name":"_numberOfEntries","type":"uint256","internalType":"uint256"}],"outputs":[],"stateMutability":"payable"},{"type":"function","name":"changeEntryCost","inputs":[{"name":"_newCost","type":"uint256","internalType":"uint256"}],"outputs":[],"stateMutability":"nonpayable"},{"type":"function","name":"endRaffle","inputs":[],"outputs":[],"stateMutability":"nonpayable"},{"type":"function","name":"entryCost","inputs":[],"outputs":[{"name":"","type":"uint256","internalType":"uint256"}],"stateMutability":"view"},{"type":"function","name":"entryCount","inputs":[{"name":"","type":"address","internalType":"address"}],"outputs":[{"name":"","type":"uint256","internalType":"uint256"}],"stateMutability":"view"},{"type":"function","name":"getPlayers","inputs":[],"outputs":[{"name":"","type":"address[]","internalType":"address[]"}],"stateMutability":"view"},{"type":"function","name":"getbalance","inputs":[],"outputs":[{"name":"","type":"uint256","internalType":"uint256"}],"stateMutability":"view"},{"type":"function","name":"isPlayer","inputs":[{"name":"_player","type":"address","internalType":"address"}],"outputs":[{"name":"","type":"bool","internalType":"bool"}],"stateMutability":"view"},{"type":"function","name":"nftAddress","inputs":[],"outputs":[{"name":"","type":"address","internalType":"address"}],"stateMutability":"view"},{"type":"function","name":"nftId","inputs":[],"outputs":[{"name":"","type":"uint256","internalType":"uint256"}],"stateMutability":"view"},{"type":"function","name":"owner","inputs":[],"outputs":[{"name":"","type":"address","internalType":"address"}],"stateMutability":"view"},{"type":"function","name":"players","inputs":[{"name":"","type":"uint256","internalType":"uint256"}],"outputs":[{"name":"","type":"address","internalType":"address"}],"stateMutability":"view"},{"type":"function","name":"raffleStatus","inputs":[],"outputs":[{"name":"","type":"bool","internalType":"bool"}],"stateMutability":"view"},{"type":"function","name":"resetsContract","inputs":[],"outputs":[],"stateMutability":"nonpayable"},{"type":"function","name":"selectWinner","inputs":[],"outputs":[],"stateMutability":"nonpayable"},{"type":"function","name":"startRaffle","inputs":[{"name":"_nftContract","type":"address","internalType":"address"},{"name":"_tokenID","type":"uint256","internalType":"uint256"}],"outputs":[],"stateMutability":"nonpayable"},{"type":"function","name":"totalEntries","inputs":[],"outputs":[{"name":"","type":"uint256","internalType":"uint256"}],"stateMutability":"view"},{"type":"function","name":"withdrawnBalance","inputs":[],"outputs":[],"stateMutability":"nonpayable"},{"type":"event","name":"BalanceWithdrawn","inputs":[{"name":"amount","type":"uint256","indexed":false,"internalType":"uint256"}],"anonymous":false},{"type":"event","name":"EntryCostChanged","inputs":[{"name":"newCost","type":"uint256","indexed":false,"internalType":"uint256"}],"anonymous":false},{"type":"event","name":"NFTPrizeSet","inputs":[{"name":"nftAddress","type":"address","indexed":false,"internalType":"address"},{"name":"nftId","type":"uint256","indexed":false,"internalType":"uint256"}],"anonymous":false},{"type":"event","name":"NewEntry","inputs":[{"name":"player","type":"address","indexed":false,"internalType":"address"}],"anonymous":false},{"type":"event","name":"RaffleEnded","inputs":[],"anonymous":false},{"type":"event","name":"RaffleStarted","inputs":[],"anonymous":false},{"type":"event","name":"WinnerSelected","inputs":[{"name":"winner","type":"address","indexed":false,"internalType":"address"}],"anonymous":false}],"bytecode":{"object":"0x6080604052348015600f57600080fd5b5060405161103f38038061103f833981016040819052602c916055565b600080546001600160a01b031916331781556005919091556004805460ff19169055600855606d565b600060208284031215606657600080fd5b5051919050565b610fc38061007c6000396000f3fe6080604052600436106101095760003560e01c80637fef036e11610095578063c6bc518211610064578063c6bc5182146102b6578063ccfa213e146102cc578063d4ac1ef6146102e6578063ee095c0e146102fb578063f71d96cb1461031057600080fd5b80637fef036e146102485780638b5b9ccc1461025e5780638da5cb5b14610280578063ae42ced6146102a057600080fd5b806333a99e04116100dc57806333a99e041461019a57806341dd1ef8146101af5780634d9b3d5d146101ea5780635bf8633a146101fd578063767d59af1461023557600080fd5b8063038546511461010e5780630513ec681461013057806309c95e1014610150578063154e815214610185575b600080fd5b34801561011a57600080fd5b5061012e610129366004610df7565b610330565b005b34801561013c57600080fd5b5061012e61014b366004610e23565b6105a3565b34801561015c57600080fd5b5061017061016b366004610e3c565b610655565b60405190151581526020015b60405180910390f35b34801561019157600080fd5b5061012e6106b4565b3480156101a657600080fd5b5061012e610793565b3480156101bb57600080fd5b506101dc6101ca366004610e3c565b60016020526000908152604090205481565b60405190815260200161017c565b3480156101f657600080fd5b50476101dc565b34801561020957600080fd5b5060065461021d906001600160a01b031681565b6040516001600160a01b03909116815260200161017c565b61012e610243366004610e23565b6109ff565b34801561025457600080fd5b506101dc60085481565b34801561026a57600080fd5b50610273610bb0565b60405161017c9190610e60565b34801561028c57600080fd5b5060005461021d906001600160a01b031681565b3480156102ac57600080fd5b506101dc60055481565b3480156102c257600080fd5b506101dc60075481565b3480156102d857600080fd5b506004546101709060ff1681565b3480156102f257600080fd5b5061012e610c12565b34801561030757600080fd5b5061012e610c87565b34801561031c57600080fd5b5061021d61032b366004610e23565b610d30565b6000546001600160a01b031633146103635760405162461bcd60e51b815260040161035a90610ead565b60405180910390fd5b60045460ff16156103b65760405162461bcd60e51b815260206004820152601960248201527f726166666c6520697320616c7265616479207374617274656400000000000000604482015260640161035a565b6006546001600160a01b0316156104415760405162461bcd60e51b815260206004820152604360248201527f4e4654207072697a6520697320616c7265616479207365742e20506c6561736560448201527f2073656c6563742077696e6e65722066726f6d2070726576696f757320726166606482015262666c6560e81b608482015260a40161035a565b6000546040516331a9108f60e11b8152600481018390526001600160a01b0391821691841690636352211e90602401602060405180830381865afa15801561048d573d6000803e3d6000fd5b505050506040513d601f19601f820116820180604052508101906104b19190610ef2565b6001600160a01b0316146105075760405162461bcd60e51b815260206004820152601a60248201527f4f776e657220646f6573206e6f74206f776e20746865204e4654000000000000604482015260640161035a565b600680546001600160a01b0319166001600160a01b03841617905560078190556004805460ff191660011790556040517f093fa4dfbb74d3608ba227f645b7ff895fb60f8d2d990df81a7c200c325c88d090600090a1604080516001600160a01b0384168152602081018390527f2ac20e8e7908ca4f6e905c54ac2fe40c31c687b210db2a2718e3e54ccfe95711910160405180910390a15050565b6000546001600160a01b031633146105cd5760405162461bcd60e51b815260040161035a90610ead565b60045460ff161561061a5760405162461bcd60e51b8152602060048201526017602482015276526166666c65206973207374696c6c2072756e6e696e6760481b604482015260640161035a565b60058190556040518181527eb880966eaaba04d39b129a92f6780ac322d8cd79a2ee908d3c3bf7fb2de777906020015b60405180910390a150565b6000805b6002548110156106ab57826001600160a01b03166002828154811061068057610680610f0f565b6000918252602090912001546001600160a01b0316036106a35750600192915050565b600101610659565b50600092915050565b6000546001600160a01b031633146106de5760405162461bcd60e51b815260040161035a90610ead565b600047116107275760405162461bcd60e51b81526020600482015260166024820152754e6f2062616c616e636520746f20576974686472617760501b604482015260640161035a565b6000805460405147926001600160a01b039092169183156108fc02918491818181858888f19350505050158015610762573d6000803e3d6000fd5b506040518181527f39f8b889424a1684bd36857c25ab79691ed71adf60bbeca32820cb4de3c5884c9060200161064a565b6000546001600160a01b031633146107bd5760405162461bcd60e51b815260040161035a90610ead565b60045460ff161561080a5760405162461bcd60e51b8152602060048201526017602482015276526166666c65206973207374696c6c2072756e6e696e6760481b604482015260640161035a565b6003546108505760405162461bcd60e51b81526020600482015260146024820152734e6f20706c617965727320696e20726166666c6560601b604482015260640161035a565b6006546001600160a01b031661089f5760405162461bcd60e51b8152602060048201526014602482015273139195081c1c9a5e99481a5cc81b9bdd081cd95d60621b604482015260640161035a565b6003546000906108e160025460408051446020808301919091524282840152606080830194909452825180830390940184526080909101909152815191012090565b6108eb9190610f25565b905060006003828154811061090257610902610f0f565b600091825260209182902001546040516001600160a01b0390911680825292507f1d4c260f1824cd028e6c9e6e31c3a0b94f2513e7a641113ec759d382f9bdd5a1910160405180910390a16006546000546007546040516323b872dd60e01b81526001600160a01b039283166004820152848316602482015260448101919091529116906323b872dd90606401600060405180830381600087803b1580156109a957600080fd5b505af11580156109bd573d6000803e3d6000fd5b505050506109c9610d5a565b6109d560036000610db0565b6109e160026000610db0565b5050600680546001600160a01b031916905560006007819055600855565b60045460ff16610a495760405162461bcd60e51b8152602060048201526015602482015274149859999b19481a5cc81b9bdd081cdd185c9d1959605a1b604482015260640161035a565b80600554610a579190610f5d565b3414610a9d5760405162461bcd60e51b8152602060048201526015602482015274125b98dbdc9c9958dd08185b5bdd5b9d081cd95b9d605a1b604482015260640161035a565b3360009081526001602052604081208054839290610abc908490610f7a565b925050819055508060086000828254610ad59190610f7a565b90915550610ae4905033610655565b610b2b57600280546001810182556000919091527f405787fa12a823e0f2b7631cc41b3ba8828b3321ca811111fa75cd3aa3bb5ace0180546001600160a01b031916331790555b60005b81811015610b7f5760038054600181810183556000929092527fc2575a0e9e593c00f959f8c92f12db2869c3395a3b0502d05e2516446f71f85b0180546001600160a01b0319163317905501610b2e565b506040513381527f896131ca629c91d572fa56a5496788038dae3a7dc3cc6686af073c4e13efd3099060200161064a565b60606002805480602002602001604051908101604052809291908181526020018280548015610c0857602002820191906000526020600020905b81546001600160a01b03168152600190910190602001808311610bea575b5050505050905090565b6000546001600160a01b03163314610c3c5760405162461bcd60e51b815260040161035a90610ead565b610c4860036000610db0565b610c5460026000610db0565b6004805460ff19169055600680546001600160a01b0319169055600060078190556005819055600855610c85610d5a565b565b6000546001600160a01b03163314610cb15760405162461bcd60e51b815260040161035a90610ead565b60045460ff16610cfb5760405162461bcd60e51b8152602060048201526015602482015274149859999b19481a5cc81b9bdd081cdd185c9d1959605a1b604482015260640161035a565b6004805460ff191690556040517f502fd88d3ee98597d4546d25e71901684f153dccc5308b79f0f9ad3c660537a690600090a1565b60028181548110610d4057600080fd5b6000918252602090912001546001600160a01b0316905081565b60005b600254811015610dad5760006001600060028481548110610d8057610d80610f0f565b60009182526020808320909101546001600160a01b03168352820192909252604001902055600101610d5d565b50565b5080546000825590600052602060002090810190610dad91905b80821115610dde5760008155600101610dca565b5090565b6001600160a01b0381168114610dad57600080fd5b60008060408385031215610e0a57600080fd5b8235610e1581610de2565b946020939093013593505050565b600060208284031215610e3557600080fd5b5035919050565b600060208284031215610e4e57600080fd5b8135610e5981610de2565b9392505050565b6020808252825182820181905260009190848201906040850190845b81811015610ea15783516001600160a01b031683529284019291840191600101610e7c565b50909695505050505050565b60208082526025908201527f4f6e6c7920746865206f776e65722063616e2063616c6c20746869732066756e60408201526431ba34b7b760d91b606082015260800190565b600060208284031215610f0457600080fd5b8151610e5981610de2565b634e487b7160e01b600052603260045260246000fd5b600082610f4257634e487b7160e01b600052601260045260246000fd5b500690565b634e487b7160e01b600052601160045260246000fd5b8082028115828204841417610f7457610f74610f47565b92915050565b80820180821115610f7457610f74610f4756fea264697066735822122083d921c36fa36dc53d6a7f2c7b851e757292ab8f014434679988cd54d8b4554864736f6c63430008190033","linkReferences":{}},"methodIdentifiers":{"buyEntry(uint256)":"767d59af","changeEntryCost(uint256)":"0513ec68","endRaffle()":"ee095c0e","entryCost()":"ae42ced6","entryCount(address)":"41dd1ef8","getPlayers()":"8b5b9ccc","getbalance()":"4d9b3d5d","isPlayer(address)":"09c95e10","nftAddress()":"5bf8633a","nftId()":"c6bc5182","owner()":"8da5cb5b","players(uint256)":"f71d96cb","raffleStatus()":"ccfa213e","resetsContract()":"d4ac1ef6","selectWinner()":"33a99e04","startRaffle(address,uint256)":"03854651","totalEntries()":"7fef036e","withdrawnBalance()":"154e8152"},"id":23}